{
  "address": "0x892e749E12f6beaff85452F164dA77354E1dC728",
  "abi": [
    {
      "inputs": [
        {
          "internalType": "contract IVaultV1",
          "name": "vault_",
          "type": "address"
        },
        {
          "internalType": "contract IERC20",
          "name": "usdaToken_",
          "type": "address"
        },
        {
          "internalType": "contract IERC20",
          "name": "collateralToken_",
          "type": "address"
        },
        {
          "internalType": "contract IOracle",
          "name": "oracle_",
          "type": "address"
        }
      ],
      "stateMutability": "nonpayable",
      "type": "constructor"
    },
    {
      "anonymous": false,
      "inputs": [
        {
          "indexed": false,
          "internalType": "uint128",
          "name": "accruedAmount",
          "type": "uint128"
        }
      ],
      "name": "LogAccrue",
      "type": "event"
    },
    {
      "anonymous": false,
      "inputs": [
        {
          "indexed": true,
          "internalType": "address",
          "name": "from",
          "type": "address"
        },
        {
          "indexed": true,
          "internalType": "address",
          "name": "to",
          "type": "address"
        },
        {
          "indexed": false,
          "internalType": "uint256",
          "name": "share",
          "type": "uint256"
        }
      ],
      "name": "LogAddCollateral",
      "type": "event"
    },
    {
      "anonymous": false,
      "inputs": [
        {
          "indexed": true,
          "internalType": "address",
          "name": "from",
          "type": "address"
        },
        {
          "indexed": true,
          "internalType": "address",
          "name": "to",
          "type": "address"
        },
        {
          "indexed": false,
          "internalType": "uint256",
          "name": "amount",
          "type": "uint256"
        },
        {
          "indexed": false,
          "internalType": "uint256",
          "name": "part",
          "type": "uint256"
        }
      ],
      "name": "LogBorrow",
      "type": "event"
    },
    {
      "anonymous": false,
      "inputs": [
        {
          "indexed": true,
          "internalType": "address",
          "name": "from",
          "type": "address"
        },
        {
          "indexed": true,
          "internalType": "address",
          "name": "to",
          "type": "address"
        },
        {
          "indexed": false,
          "internalType": "uint256",
          "name": "amount",
          "type": "uint256"
        },
        {
          "indexed": false,
          "internalType": "uint256",
          "name": "part",
          "type": "uint256"
        }
      ],
      "name": "LogRepay",
      "type": "event"
    },
    {
      "anonymous": false,
      "inputs": [
        {
          "indexed": true,
          "internalType": "address",
          "name": "from",
          "type": "address"
        },
        {
          "indexed": true,
          "internalType": "address",
          "name": "to",
          "type": "address"
        },
        {
          "indexed": false,
          "internalType": "uint256",
          "name": "share",
          "type": "uint256"
        }
      ],
      "name": "LogWithdrawCollateral",
      "type": "event"
    },
    {
      "inputs": [],
      "name": "accrue",
      "outputs": [],
      "stateMutability": "nonpayable",
      "type": "function"
    },
    {
      "inputs": [],
      "name": "accrueInfo",
      "outputs": [
        {
          "internalType": "uint64",
          "name": "lastAccrued",
          "type": "uint64"
        },
        {
          "internalType": "uint128",
          "name": "feesEarned",
          "type": "uint128"
        }
      ],
      "stateMutability": "view",
      "type": "function"
    },
    {
      "inputs": [],
      "name": "collateral",
      "outputs": [
        {
          "internalType": "contract IERC20",
          "name": "",
          "type": "address"
        }
      ],
      "stateMutability": "view",
      "type": "function"
    },
    {
      "inputs": [],
      "name": "exchangeRate",
      "outputs": [
        {
          "internalType": "uint256",
          "name": "",
          "type": "uint256"
        }
      ],
      "stateMutability": "view",
      "type": "function"
    },
    {
      "inputs": [],
      "name": "feeTo",
      "outputs": [
        {
          "internalType": "address",
          "name": "",
          "type": "address"
        }
      ],
      "stateMutability": "view",
      "type": "function"
    },
    {
      "inputs": [
        {
          "internalType": "address",
          "name": "to",
          "type": "address"
        },
        {
          "internalType": "uint256",
          "name": "_inAmount",
          "type": "uint256"
        },
        {
          "internalType": "uint256",
          "name": "_outAmount",
          "type": "uint256"
        }
      ],
      "name": "multiBorrow",
      "outputs": [
        {
          "internalType": "uint256",
          "name": "part",
          "type": "uint256"
        },
        {
          "internalType": "uint256",
          "name": "share",
          "type": "uint256"
        }
      ],
      "stateMutability": "nonpayable",
      "type": "function"
    },
    {
      "inputs": [],
      "name": "oracle",
      "outputs": [
        {
          "internalType": "contract IOracle",
          "name": "",
          "type": "address"
        }
      ],
      "stateMutability": "view",
      "type": "function"
    },
    {
      "inputs": [
        {
          "internalType": "address",
          "name": "to",
          "type": "address"
        },
        {
          "internalType": "uint256",
          "name": "part",
          "type": "uint256"
        }
      ],
      "name": "repay",
      "outputs": [
        {
          "internalType": "uint256",
          "name": "amount",
          "type": "uint256"
        }
      ],
      "stateMutability": "nonpayable",
      "type": "function"
    },
    {
      "inputs": [
        {
          "internalType": "address",
          "name": "newFeeTo",
          "type": "address"
        }
      ],
      "name": "setFeeTo",
      "outputs": [],
      "stateMutability": "nonpayable",
      "type": "function"
    },
    {
      "inputs": [],
      "name": "totalBorrow",
      "outputs": [
        {
          "internalType": "uint128",
          "name": "elastic",
          "type": "uint128"
        },
        {
          "internalType": "uint128",
          "name": "base",
          "type": "uint128"
        }
      ],
      "stateMutability": "view",
      "type": "function"
    },
    {
      "inputs": [],
      "name": "totalCollateralShare",
      "outputs": [
        {
          "internalType": "uint256",
          "name": "",
          "type": "uint256"
        }
      ],
      "stateMutability": "view",
      "type": "function"
    },
    {
      "inputs": [],
      "name": "updateExchangeRate",
      "outputs": [
        {
          "internalType": "bool",
          "name": "updated",
          "type": "bool"
        },
        {
          "internalType": "uint256",
          "name": "rate",
          "type": "uint256"
        }
      ],
      "stateMutability": "nonpayable",
      "type": "function"
    },
    {
      "inputs": [],
      "name": "usdaToken",
      "outputs": [
        {
          "internalType": "contract IERC20",
          "name": "",
          "type": "address"
        }
      ],
      "stateMutability": "view",
      "type": "function"
    },
    {
      "inputs": [
        {
          "internalType": "address",
          "name": "",
          "type": "address"
        }
      ],
      "name": "userBorrowPart",
      "outputs": [
        {
          "internalType": "uint256",
          "name": "",
          "type": "uint256"
        }
      ],
      "stateMutability": "view",
      "type": "function"
    },
    {
      "inputs": [
        {
          "internalType": "address",
          "name": "",
          "type": "address"
        }
      ],
      "name": "userCollateralShare",
      "outputs": [
        {
          "internalType": "uint256",
          "name": "",
          "type": "uint256"
        }
      ],
      "stateMutability": "view",
      "type": "function"
    },
    {
      "inputs": [],
      "name": "vault",
      "outputs": [
        {
          "internalType": "contract IVaultV1",
          "name": "",
          "type": "address"
        }
      ],
      "stateMutability": "view",
      "type": "function"
    },
    {
      "inputs": [
        {
          "internalType": "address",
          "name": "to",
          "type": "address"
        },
        {
          "internalType": "uint256",
          "name": "share",
          "type": "uint256"
        }
      ],
      "name": "withdrawCollateral",
      "outputs": [],
      "stateMutability": "nonpayable",
      "type": "function"
    },
    {
      "inputs": [],
      "name": "withdrawFees",
      "outputs": [],
      "stateMutability": "nonpayable",
      "type": "function"
    }
  ],
  "transactionHash": "0xe70e58dad0e454a7a045922123fe43b7d30a799450a59296f74d07ace266e52d",
  "args": [
    "0x54B79011cd465cc4FC695540fBBbf1b97c0613B9",
    "0xA9659B42A4B589B32A478a5e2B180E7f4188AB95",
    "0xf789571D0a1aA314278a7544ec1561114Dd49f9e",
    "0xCcB70a1D3479cd8305e844cc12555af15F7D586c"
  ],
  "numDeployments": 1,
  "solcInputHash": "97f110230cb8d4fe5f13ae05a80d88e6",
  "bytecode": "0x60a06040523480156200001157600080fd5b50604051620029cc380380620029cc83398181016040528101906200003791906200017f565b8373ffffffffffffffffffffffffffffffffffffffff1660808173ffffffffffffffffffffffffffffffffffffffff1660601b8152505082600160006101000a81548173ffffffffffffffffffffffffffffffffffffffff021916908373ffffffffffffffffffffffffffffffffffffffff16021790555080600260006101000a81548173ffffffffffffffffffffffffffffffffffffffff021916908373ffffffffffffffffffffffffffffffffffffffff160217905550816000806101000a81548173ffffffffffffffffffffffffffffffffffffffff021916908373ffffffffffffffffffffffffffffffffffffffff16021790555050505050620002b4565b6000815190506200014b8162000266565b92915050565b600081519050620001628162000280565b92915050565b60008151905062000179816200029a565b92915050565b600080600080608085870312156200019c576200019b62000261565b5b6000620001ac8782880162000168565b9450506020620001bf878288016200013a565b9350506040620001d2878288016200013a565b9250506060620001e58782880162000151565b91505092959194509250565b6000620001fe8262000241565b9050919050565b60006200021282620001f1565b9050919050565b60006200022682620001f1565b9050919050565b60006200023a82620001f1565b9050919050565b600073ffffffffffffffffffffffffffffffffffffffff82169050919050565b600080fd5b620002718162000205565b81146200027d57600080fd5b50565b6200028b8162000219565b81146200029757600080fd5b50565b620002a5816200022d565b8114620002b157600080fd5b50565b60805160601c6126b3620003196000396000818161050301528181610cb401528181610ead01528181610f7c015281816110650152818161117f015281816112660152818161137f0152818161144f0152818161176b015261187901526126b36000f3fe608060405234801561001057600080fd5b50600436106101165760003560e01c806348e4163e116100a2578063b27c0e7411610071578063b27c0e74146102d6578063d8dfeb45146102f5578063f46901ed14610313578063f8ba4cff1461032f578063fbfa77cf1461033957610116565b806348e4163e146102385780637dc0d1d0146102685780638285ef401461028657806385c22ac4146102a557610116565b806322867d78116100e957806322867d78146101a6578063350c35e9146101d65780633ba0b9a9146101f2578063473e3ce714610210578063476343ee1461022e57610116565b8063017e7e581461011b57806302ce728f146101395780630736747a146101585780631c9e379b14610176575b600080fd5b610123610357565b6040516101309190611ffd565b60405180910390f35b61014161037d565b60405161014f929190612018565b60405180910390f35b610160610443565b60405161016d9190612041565b60405180910390f35b610190600480360381019061018b9190611dfc565b610469565b60405161019d9190612186565b60405180910390f35b6101c060048036038101906101bb9190611e29565b610481565b6040516101cd9190612186565b60405180910390f35b6101f060048036038101906101eb9190611e29565b61049f565b005b6101fa6104b5565b6040516102079190612186565b60405180910390f35b6102186104bb565b6040516102259190612186565b60405180910390f35b6102366104c1565b005b610252600480360381019061024d9190611dfc565b610635565b60405161025f9190612186565b60405180910390f35b61027061064d565b60405161027d91906120bc565b60405180910390f35b61028e610673565b60405161029c92919061215d565b60405180910390f35b6102bf60048036038101906102ba9190611e69565b6106bd565b6040516102cd9291906121a1565b60405180910390f35b6102de6107f1565b6040516102ec9291906121ca565b60405180910390f35b6102fd610833565b60405161030a9190612041565b60405180910390f35b61032d60048036038101906103289190611dfc565b610857565b005b61033761089b565b005b610341610cb2565b60405161034e91906120d7565b60405180910390f35b600360009054906101000a900473ffffffffffffffffffffffffffffffffffffffff1681565b600080600260009054906101000a900473ffffffffffffffffffffffffffffffffffffffff1673ffffffffffffffffffffffffffffffffffffffff16636d4ce63c6040518163ffffffff1660e01b8152600401604080518083038186803b1580156103e757600080fd5b505afa1580156103fb573d6000803e3d6000fd5b505050506040513d601f19601f8201168201806040525081019061041f9190611ebc565b80925081935050508115610439578060088190555061043f565b60085490505b9091565b600160009054906101000a900473ffffffffffffffffffffffffffffffffffffffff1681565b60066020528060005260406000206000915090505481565b600061048b61089b565b61049783600084610cd6565b905092915050565b6104a761089b565b6104b182826110db565b5050565b60085481565b60045481565b6104c961089b565b6000600960000160089054906101000a90046fffffffffffffffffffffffffffffffff166fffffffffffffffffffffffffffffffff1690507f000000000000000000000000000000000000000000000000000000000000000073ffffffffffffffffffffffffffffffffffffffff166301f47471600160009054906101000a900473ffffffffffffffffffffffffffffffffffffffff16600360009054906101000a900473ffffffffffffffffffffffffffffffffffffffff16846040518463ffffffff1660e01b81526004016105a29392919061205c565b602060405180830381600087803b1580156105bc57600080fd5b505af11580156105d0573d6000803e3d6000fd5b505050506040513d601f19601f820116820180604052508101906105f49190611efc565b506000600960000160086101000a8154816fffffffffffffffffffffffffffffffff02191690836fffffffffffffffffffffffffffffffff16021790555050565b60076020528060005260406000206000915090505481565b600260009054906101000a900473ffffffffffffffffffffffffffffffffffffffff1681565b60058060000160009054906101000a90046fffffffffffffffffffffffffffffffff16908060000160109054906101000a90046fffffffffffffffffffffffffffffffff16905082565b600080600083856106ce9190612255565b1161070e576040517f08c379a000000000000000000000000000000000000000000000000000000000815260040161070590612122565b60405180910390fd5b60008411801561071e5750600083145b156107b85761072f856001866112d6565b600760008673ffffffffffffffffffffffffffffffffffffffff1673ffffffffffffffffffffffffffffffffffffffff168152602001908152602001600020549150600660008673ffffffffffffffffffffffffffffffffffffffff1673ffffffffffffffffffffffffffffffffffffffff1681526020019081526020016000205490506107e9565b6107c061089b565b60008411156107d6576107d5856001866112d6565b5b6107e085846114d8565b80925081935050505b935093915050565b60098060000160009054906101000a900467ffffffffffffffff16908060000160089054906101000a90046fffffffffffffffffffffffffffffffff16905082565b60008054906101000a900473ffffffffffffffffffffffffffffffffffffffff1681565b80600360006101000a81548173ffffffffffffffffffffffffffffffffffffffff021916908373ffffffffffffffffffffffffffffffffffffffff16021790555050565b600060096040518060400160405290816000820160009054906101000a900467ffffffffffffffff1667ffffffffffffffff1667ffffffffffffffff1681526020016000820160089054906101000a90046fffffffffffffffffffffffffffffffff166fffffffffffffffffffffffffffffffff166fffffffffffffffffffffffffffffffff16815250509050600081600001514261093a9190612419565b67ffffffffffffffff1690506000816fffffffffffffffffffffffffffffffff161415610968575050610cb0565b42826000019067ffffffffffffffff16908167ffffffffffffffff1681525050600060056040518060400160405290816000820160009054906101000a90046fffffffffffffffffffffffffffffffff166fffffffffffffffffffffffffffffffff166fffffffffffffffffffffffffffffffff1681526020016000820160109054906101000a90046fffffffffffffffffffffffffffffffff166fffffffffffffffffffffffffffffffff166fffffffffffffffffffffffffffffffff16815250509050600081602001516fffffffffffffffffffffffffffffffff161415610ac85782600960008201518160000160006101000a81548167ffffffffffffffff021916908367ffffffffffffffff16021790555060208201518160000160086101000a8154816fffffffffffffffffffffffffffffffff02191690836fffffffffffffffffffffffffffffffff160217905550905050505050610cb0565b6000670de0b6b3a7640000836312e687c08460000151610ae8919061230d565b610af2919061230d565b610afc91906122ab565b9050808260000151610b0e919061220f565b82600001906fffffffffffffffffffffffffffffffff1690816fffffffffffffffffffffffffffffffff1681525050808460200151610b4d919061220f565b84602001906fffffffffffffffffffffffffffffffff1690816fffffffffffffffffffffffffffffffff168152505081600560008201518160000160006101000a8154816fffffffffffffffffffffffffffffffff02191690836fffffffffffffffffffffffffffffffff16021790555060208201518160000160106101000a8154816fffffffffffffffffffffffffffffffff02191690836fffffffffffffffffffffffffffffffff16021790555090505083600960008201518160000160006101000a81548167ffffffffffffffff021916908367ffffffffffffffff16021790555060208201518160000160086101000a8154816fffffffffffffffffffffffffffffffff02191690836fffffffffffffffffffffffffffffffff1602179055509050507fee527de5e142bcc7fe0eddc4b9a04816d73f6307dd74f9204585910d60a8c08381604051610ca39190612142565b60405180910390a1505050505b565b7f000000000000000000000000000000000000000000000000000000000000000081565b6000610d8e82600160056040518060400160405290816000820160009054906101000a90046fffffffffffffffffffffffffffffffff166fffffffffffffffffffffffffffffffff166fffffffffffffffffffffffffffffffff1681526020016000820160109054906101000a90046fffffffffffffffffffffffffffffffff166fffffffffffffffffffffffffffffffff166fffffffffffffffffffffffffffffffff16815250506119b79092919063ffffffff16565b600560008294508391905060008201518160000160006101000a8154816fffffffffffffffffffffffffffffffff02191690836fffffffffffffffffffffffffffffffff16021790555060208201518160000160106101000a8154816fffffffffffffffffffffffffffffffff02191690836fffffffffffffffffffffffffffffffff1602179055505050505081600760008673ffffffffffffffffffffffffffffffffffffffff1673ffffffffffffffffffffffffffffffffffffffff16815260200190815260200160002054610e6691906123e5565b600760008673ffffffffffffffffffffffffffffffffffffffff1673ffffffffffffffffffffffffffffffffffffffff1681526020019081526020016000208190555060007f000000000000000000000000000000000000000000000000000000000000000073ffffffffffffffffffffffffffffffffffffffff1663d9ac7b84600160009054906101000a900473ffffffffffffffffffffffffffffffffffffffff16846040518363ffffffff1660e01b8152600401610f28929190612093565b60206040518083038186803b158015610f4057600080fd5b505afa158015610f54573d6000803e3d6000fd5b505050506040513d601f19601f82011682018060405250810190610f789190611efc565b90507f000000000000000000000000000000000000000000000000000000000000000073ffffffffffffffffffffffffffffffffffffffff166362d65aae600160009054906101000a900473ffffffffffffffffffffffffffffffffffffffff1633846040518463ffffffff1660e01b8152600401610ff99392919061205c565b602060405180830381600087803b15801561101357600080fd5b505af1158015611027573d6000803e3d6000fd5b505050506040513d601f19601f8201168201806040525081019061104b9190611efc565b508473ffffffffffffffffffffffffffffffffffffffff167f000000000000000000000000000000000000000000000000000000000000000073ffffffffffffffffffffffffffffffffffffffff167fc8e512d8f188ca059984b5853d2bf653da902696b8512785b182b2c813789a6e84866040516110cb9291906121a1565b60405180910390a3509392505050565b80600660003373ffffffffffffffffffffffffffffffffffffffff1673ffffffffffffffffffffffffffffffffffffffff1681526020019081526020016000205461112691906123e5565b600660003373ffffffffffffffffffffffffffffffffffffffff1673ffffffffffffffffffffffffffffffffffffffff168152602001908152602001600020819055508060045461117791906123e5565b6004819055507f000000000000000000000000000000000000000000000000000000000000000073ffffffffffffffffffffffffffffffffffffffff166362d65aae60008054906101000a900473ffffffffffffffffffffffffffffffffffffffff1684846040518463ffffffff1660e01b81526004016111fa9392919061205c565b602060405180830381600087803b15801561121457600080fd5b505af1158015611228573d6000803e3d6000fd5b505050506040513d601f19601f8201168201806040525081019061124c9190611efc565b508173ffffffffffffffffffffffffffffffffffffffff167f000000000000000000000000000000000000000000000000000000000000000073ffffffffffffffffffffffffffffffffffffffff167f363b9452111bc7b9dce55b6a2541abcc0276ef4d7d26e3f89adc7432589bf015836040516112ca9190612186565b60405180910390a35050565b80600660008573ffffffffffffffffffffffffffffffffffffffff1673ffffffffffffffffffffffffffffffffffffffff168152602001908152602001600020546113219190612255565b600660008573ffffffffffffffffffffffffffffffffffffffff1673ffffffffffffffffffffffffffffffffffffffff168152602001908152602001600020819055506000600454905081816113779190612255565b6004819055507f000000000000000000000000000000000000000000000000000000000000000073ffffffffffffffffffffffffffffffffffffffff1663c3ec106860008054906101000a900473ffffffffffffffffffffffffffffffffffffffff1633856040518463ffffffff1660e01b81526004016113fa9392919061205c565b602060405180830381600087803b15801561141457600080fd5b505af1158015611428573d6000803e3d6000fd5b505050506040513d601f19601f8201168201806040525081019061144c9190611efc565b507f000000000000000000000000000000000000000000000000000000000000000073ffffffffffffffffffffffffffffffffffffffff168473ffffffffffffffffffffffffffffffffffffffff167f9ed03113de523cebfe5e49d5f8e12894b1c0d42ce805990461726444c90eab87846040516114ca9190612186565b60405180910390a350505050565b60008061159183600160056040518060400160405290816000820160009054906101000a90046fffffffffffffffffffffffffffffffff166fffffffffffffffffffffffffffffffff166fffffffffffffffffffffffffffffffff1681526020016000820160109054906101000a90046fffffffffffffffffffffffffffffffff166fffffffffffffffffffffffffffffffff166fffffffffffffffffffffffffffffffff1681525050611a579092919063ffffffff16565b600560008295508391905060008201518160000160006101000a8154816fffffffffffffffffffffffffffffffff02191690836fffffffffffffffffffffffffffffffff16021790555060208201518160000160106101000a8154816fffffffffffffffffffffffffffffffff02191690836fffffffffffffffffffffffffffffffff1602179055505050505061165d6040518060400160405280600b81526020017f746f74616c426f72726f7700000000000000000000000000000000000000000081525083611af7565b81600760003373ffffffffffffffffffffffffffffffffffffffff1673ffffffffffffffffffffffffffffffffffffffff168152602001908152602001600020546116a89190612255565b600760003373ffffffffffffffffffffffffffffffffffffffff1673ffffffffffffffffffffffffffffffffffffffff168152602001908152602001600020819055506117696040518060400160405280600a81526020017f75736572426f72726f7700000000000000000000000000000000000000000000815250600760003373ffffffffffffffffffffffffffffffffffffffff1673ffffffffffffffffffffffffffffffffffffffff16815260200190815260200160002054611af7565b7f000000000000000000000000000000000000000000000000000000000000000073ffffffffffffffffffffffffffffffffffffffff1663d9ac7b84600160009054906101000a900473ffffffffffffffffffffffffffffffffffffffff16856040518363ffffffff1660e01b81526004016117e6929190612093565b60206040518083038186803b1580156117fe57600080fd5b505afa158015611812573d6000803e3d6000fd5b505050506040513d601f19601f820116820180604052508101906118369190611efc565b90506118776040518060400160405280600581526020017f736861726500000000000000000000000000000000000000000000000000000081525082611af7565b7f000000000000000000000000000000000000000000000000000000000000000073ffffffffffffffffffffffffffffffffffffffff166362d65aae600160009054906101000a900473ffffffffffffffffffffffffffffffffffffffff1686846040518463ffffffff1660e01b81526004016118f69392919061205c565b602060405180830381600087803b15801561191057600080fd5b505af1158015611924573d6000803e3d6000fd5b505050506040513d601f19601f820116820180604052508101906119489190611efc565b508373ffffffffffffffffffffffffffffffffffffffff163373ffffffffffffffffffffffffffffffffffffffff167fb92cb6bca8e3270b9170930f03b17571e55791acdb1a0e9f339eec88bdb35e2485856040516119a89291906121a1565b60405180910390a39250929050565b6119bf611d6a565b60006119cc858585611b93565b905080856000018181516119e091906123b1565b9150906fffffffffffffffffffffffffffffffff1690816fffffffffffffffffffffffffffffffff16815250508385602001818151611a1f91906123b1565b9150906fffffffffffffffffffffffffffffffff1690816fffffffffffffffffffffffffffffffff1681525050849150935093915050565b611a5f611d6a565b6000611a6c858585611c6a565b90508385600001818151611a80919061220f565b9150906fffffffffffffffffffffffffffffffff1690816fffffffffffffffffffffffffffffffff16815250508085602001818151611abf919061220f565b9150906fffffffffffffffffffffffffffffffff1690816fffffffffffffffffffffffffffffffff1681525050849150935093915050565b611b8f8282604051602401611b0d9291906120f2565b6040516020818303038152906040527fb60e72cc000000000000000000000000000000000000000000000000000000007bffffffffffffffffffffffffffffffffffffffffffffffffffffffff19166020820180517bffffffffffffffffffffffffffffffffffffffffffffffffffffffff8381831617835250505050611d41565b5050565b60008084602001516fffffffffffffffffffffffffffffffff161415611bbb57829050611c63565b83602001516fffffffffffffffffffffffffffffffff1684600001516fffffffffffffffffffffffffffffffff1684611bf49190612357565b611bfe91906122dc565b9050818015611c4e57508284600001516fffffffffffffffffffffffffffffffff1685602001516fffffffffffffffffffffffffffffffff1683611c429190612357565b611c4c91906122dc565b105b15611c62578080611c5e90612552565b9150505b5b9392505050565b60008084600001516fffffffffffffffffffffffffffffffff161415611c9257829050611d3a565b83600001516fffffffffffffffffffffffffffffffff1684602001516fffffffffffffffffffffffffffffffff1684611ccb9190612357565b611cd591906122dc565b9050818015611d2557508284602001516fffffffffffffffffffffffffffffffff1685600001516fffffffffffffffffffffffffffffffff1683611d199190612357565b611d2391906122dc565b105b15611d39578080611d3590612552565b9150505b5b9392505050565b60008151905060006a636f6e736f6c652e6c6f679050602083016000808483855afa5050505050565b604051806040016040528060006fffffffffffffffffffffffffffffffff16815260200160006fffffffffffffffffffffffffffffffff1681525090565b600081359050611db781612638565b92915050565b600081519050611dcc8161264f565b92915050565b600081359050611de181612666565b92915050565b600081519050611df681612666565b92915050565b600060208284031215611e1257611e116125f9565b5b6000611e2084828501611da8565b91505092915050565b60008060408385031215611e4057611e3f6125f9565b5b6000611e4e85828601611da8565b9250506020611e5f85828601611dd2565b9150509250929050565b600080600060608486031215611e8257611e816125f9565b5b6000611e9086828701611da8565b9350506020611ea186828701611dd2565b9250506040611eb286828701611dd2565b9150509250925092565b60008060408385031215611ed357611ed26125f9565b5b6000611ee185828601611dbd565b9250506020611ef285828601611de7565b9150509250929050565b600060208284031215611f1257611f116125f9565b5b6000611f2084828501611de7565b91505092915050565b611f328161244d565b82525050565b611f418161245f565b82525050565b611f50816124c5565b82525050565b611f5f816124d7565b82525050565b611f6e816124e9565b82525050565b6000611f7f826121f3565b611f8981856121fe565b9350611f9981856020860161251f565b611fa2816125fe565b840191505092915050565b6000611fba6013836121fe565b9150611fc58261260f565b602082019050919050565b611fd98161246b565b82525050565b611fe8816124a7565b82525050565b611ff7816124b1565b82525050565b60006020820190506120126000830184611f29565b92915050565b600060408201905061202d6000830185611f38565b61203a6020830184611fdf565b9392505050565b60006020820190506120566000830184611f47565b92915050565b60006060820190506120716000830186611f47565b61207e6020830185611f29565b61208b6040830184611fdf565b949350505050565b60006040820190506120a86000830185611f47565b6120b56020830184611fdf565b9392505050565b60006020820190506120d16000830184611f56565b92915050565b60006020820190506120ec6000830184611f65565b92915050565b6000604082019050818103600083015261210c8185611f74565b905061211b6020830184611fdf565b9392505050565b6000602082019050818103600083015261213b81611fad565b9050919050565b60006020820190506121576000830184611fd0565b92915050565b60006040820190506121726000830185611fd0565b61217f6020830184611fd0565b9392505050565b600060208201905061219b6000830184611fdf565b92915050565b60006040820190506121b66000830185611fdf565b6121c36020830184611fdf565b9392505050565b60006040820190506121df6000830185611fee565b6121ec6020830184611fd0565b9392505050565b600081519050919050565b600082825260208201905092915050565b600061221a8261246b565b91506122258361246b565b9250826fffffffffffffffffffffffffffffffff0382111561224a5761224961259b565b5b828201905092915050565b6000612260826124a7565b915061226b836124a7565b9250827fffffffffffffffffffffffffffffffffffffffffffffffffffffffffffffffff038211156122a05761229f61259b565b5b828201905092915050565b60006122b68261246b565b91506122c18361246b565b9250826122d1576122d06125ca565b5b828204905092915050565b60006122e7826124a7565b91506122f2836124a7565b925082612302576123016125ca565b5b828204905092915050565b60006123188261246b565b91506123238361246b565b9250816fffffffffffffffffffffffffffffffff048311821515161561234c5761234b61259b565b5b828202905092915050565b6000612362826124a7565b915061236d836124a7565b9250817fffffffffffffffffffffffffffffffffffffffffffffffffffffffffffffffff04831182151516156123a6576123a561259b565b5b828202905092915050565b60006123bc8261246b565b91506123c78361246b565b9250828210156123da576123d961259b565b5b828203905092915050565b60006123f0826124a7565b91506123fb836124a7565b92508282101561240e5761240d61259b565b5b828203905092915050565b6000612424826124b1565b915061242f836124b1565b9250828210156124425761244161259b565b5b828203905092915050565b600061245882612487565b9050919050565b60008115159050919050565b60006fffffffffffffffffffffffffffffffff82169050919050565b600073ffffffffffffffffffffffffffffffffffffffff82169050919050565b6000819050919050565b600067ffffffffffffffff82169050919050565b60006124d0826124fb565b9050919050565b60006124e2826124fb565b9050919050565b60006124f4826124fb565b9050919050565b60006125068261250d565b9050919050565b600061251882612487565b9050919050565b60005b8381101561253d578082015181840152602081019050612522565b8381111561254c576000848401525b50505050565b600061255d826124a7565b91507fffffffffffffffffffffffffffffffffffffffffffffffffffffffffffffffff8214156125905761258f61259b565b5b600182019050919050565b7f4e487b7100000000000000000000000000000000000000000000000000000000600052601160045260246000fd5b7f4e487b7100000000000000000000000000000000000000000000000000000000600052601260045260246000fd5b600080fd5b6000601f19601f8301169050919050565b7f54726f76653a206e6f7420616c6c207a65726f00000000000000000000000000600082015250565b6126418161244d565b811461264c57600080fd5b50565b6126588161245f565b811461266357600080fd5b50565b61266f816124a7565b811461267a57600080fd5b5056fea26469706673582212208e77e7b21ae742ac708baed638649540d82efe924e777d906d9bfd37597dcdcf64736f6c63430008070033",
  "devdoc": {
    "kind": "dev",
    "methods": {},
    "version": 1
  },
  "userdoc": {
    "kind": "user",
    "methods": {
      "accrue()": {
        "notice": "Accrues the interest on the borrowed tokens and handles the accumulation of fees."
      },
      "exchangeRate()": {
        "notice": "Exchange and interest rate tracking. This is 'cached' here because calls to Oracles can be very expensive."
      }
    },
    "version": 1
  },
  "storageLayout": {
    "storage": [
      {
        "astId": 980,
        "contract": "contracts/Archi-contracts-v2/Cvx3crvTrove.sol:Cvx3crvTrove",
        "label": "collateral",
        "offset": 0,
        "slot": "0",
        "type": "t_contract(IERC20)2180"
      },
      {
        "astId": 983,
        "contract": "contracts/Archi-contracts-v2/Cvx3crvTrove.sol:Cvx3crvTrove",
        "label": "usdaToken",
        "offset": 0,
        "slot": "1",
        "type": "t_contract(IERC20)2180"
      },
      {
        "astId": 986,
        "contract": "contracts/Archi-contracts-v2/Cvx3crvTrove.sol:Cvx3crvTrove",
        "label": "oracle",
        "offset": 0,
        "slot": "2",
        "type": "t_contract(IOracle)837"
      },
      {
        "astId": 988,
        "contract": "contracts/Archi-contracts-v2/Cvx3crvTrove.sol:Cvx3crvTrove",
        "label": "feeTo",
        "offset": 0,
        "slot": "3",
        "type": "t_address"
      },
      {
        "astId": 990,
        "contract": "contracts/Archi-contracts-v2/Cvx3crvTrove.sol:Cvx3crvTrove",
        "label": "totalCollateralShare",
        "offset": 0,
        "slot": "4",
        "type": "t_uint256"
      },
      {
        "astId": 993,
        "contract": "contracts/Archi-contracts-v2/Cvx3crvTrove.sol:Cvx3crvTrove",
        "label": "totalBorrow",
        "offset": 0,
        "slot": "5",
        "type": "t_struct(Rebase)2696_storage"
      },
      {
        "astId": 997,
        "contract": "contracts/Archi-contracts-v2/Cvx3crvTrove.sol:Cvx3crvTrove",
        "label": "userCollateralShare",
        "offset": 0,
        "slot": "6",
        "type": "t_mapping(t_address,t_uint256)"
      },
      {
        "astId": 1001,
        "contract": "contracts/Archi-contracts-v2/Cvx3crvTrove.sol:Cvx3crvTrove",
        "label": "userBorrowPart",
        "offset": 0,
        "slot": "7",
        "type": "t_mapping(t_address,t_uint256)"
      },
      {
        "astId": 1004,
        "contract": "contracts/Archi-contracts-v2/Cvx3crvTrove.sol:Cvx3crvTrove",
        "label": "exchangeRate",
        "offset": 0,
        "slot": "8",
        "type": "t_uint256"
      },
      {
        "astId": 1012,
        "contract": "contracts/Archi-contracts-v2/Cvx3crvTrove.sol:Cvx3crvTrove",
        "label": "accrueInfo",
        "offset": 0,
        "slot": "9",
        "type": "t_struct(AccrueInfo)1009_storage"
      }
    ],
    "types": {
      "t_address": {
        "encoding": "inplace",
        "label": "address",
        "numberOfBytes": "20"
      },
      "t_contract(IERC20)2180": {
        "encoding": "inplace",
        "label": "contract IERC20",
        "numberOfBytes": "20"
      },
      "t_contract(IOracle)837": {
        "encoding": "inplace",
        "label": "contract IOracle",
        "numberOfBytes": "20"
      },
      "t_mapping(t_address,t_uint256)": {
        "encoding": "mapping",
        "key": "t_address",
        "label": "mapping(address => uint256)",
        "numberOfBytes": "32",
        "value": "t_uint256"
      },
      "t_struct(AccrueInfo)1009_storage": {
        "encoding": "inplace",
        "label": "struct Cvx3crvTrove.AccrueInfo",
        "members": [
          {
            "astId": 1006,
            "contract": "contracts/Archi-contracts-v2/Cvx3crvTrove.sol:Cvx3crvTrove",
            "label": "lastAccrued",
            "offset": 0,
            "slot": "0",
            "type": "t_uint64"
          },
          {
            "astId": 1008,
            "contract": "contracts/Archi-contracts-v2/Cvx3crvTrove.sol:Cvx3crvTrove",
            "label": "feesEarned",
            "offset": 8,
            "slot": "0",
            "type": "t_uint128"
          }
        ],
        "numberOfBytes": "32"
      },
      "t_struct(Rebase)2696_storage": {
        "encoding": "inplace",
        "label": "struct Rebase",
        "members": [
          {
            "astId": 2693,
            "contract": "contracts/Archi-contracts-v2/Cvx3crvTrove.sol:Cvx3crvTrove",
            "label": "elastic",
            "offset": 0,
            "slot": "0",
            "type": "t_uint128"
          },
          {
            "astId": 2695,
            "contract": "contracts/Archi-contracts-v2/Cvx3crvTrove.sol:Cvx3crvTrove",
            "label": "base",
            "offset": 16,
            "slot": "0",
            "type": "t_uint128"
          }
        ],
        "numberOfBytes": "32"
      },
      "t_uint128": {
        "encoding": "inplace",
        "label": "uint128",
        "numberOfBytes": "16"
      },
      "t_uint256": {
        "encoding": "inplace",
        "label": "uint256",
        "numberOfBytes": "32"
      },
      "t_uint64": {
        "encoding": "inplace",
        "label": "uint64",
        "numberOfBytes": "8"
      }
    }
  }
}