{
  "address": "0xCcB70a1D3479cd8305e844cc12555af15F7D586c",
  "abi": [
    {
      "inputs": [],
      "stateMutability": "nonpayable",
      "type": "constructor"
    },
    {
      "inputs": [],
      "name": "get",
      "outputs": [
        {
          "internalType": "bool",
          "name": "",
          "type": "bool"
        },
        {
          "internalType": "uint256",
          "name": "",
          "type": "uint256"
        }
      ],
      "stateMutability": "view",
      "type": "function"
    },
    {
      "inputs": [],
      "name": "owner",
      "outputs": [
        {
          "internalType": "address",
          "name": "",
          "type": "address"
        }
      ],
      "stateMutability": "view",
      "type": "function"
    },
    {
      "inputs": [
        {
          "internalType": "uint256",
          "name": "_price",
          "type": "uint256"
        }
      ],
      "name": "setPrice",
      "outputs": [],
      "stateMutability": "nonpayable",
      "type": "function"
    }
  ],
  "transactionHash": "0x1f1265f985f5fddcd0465d02e566998566cb3e669760a514b4ac4f11e1473f3e",
  "args": [],
  "numDeployments": 1,
  "solcInputHash": "8bd4e6f0044b7c7376be64662865fad8",
  "bytecode": "0x6080604052670dd88bf47978589e60015534801561001c57600080fd5b50336000806101000a81548173ffffffffffffffffffffffffffffffffffffffff021916908373ffffffffffffffffffffffffffffffffffffffff1602179055506102398061006c6000396000f3fe608060405234801561001057600080fd5b50600436106100415760003560e01c80636d4ce63c146100465780638da5cb5b1461006557806391b7f5ed14610083575b600080fd5b61004e61009f565b60405161005c929190610176565b60405180910390f35b61006d6100b4565b60405161007a919061015b565b60405180910390f35b61009d60048036038101906100989190610101565b6100d8565b005b60008060016100ac6100e2565b915091509091565b60008054906101000a900473ffffffffffffffffffffffffffffffffffffffff1681565b8060018190555050565b6000600154905090565b6000813590506100fb816101ec565b92915050565b600060208284031215610117576101166101e7565b5b6000610125848285016100ec565b91505092915050565b6101378161019f565b82525050565b610146816101b1565b82525050565b610155816101dd565b82525050565b6000602082019050610170600083018461012e565b92915050565b600060408201905061018b600083018561013d565b610198602083018461014c565b9392505050565b60006101aa826101bd565b9050919050565b60008115159050919050565b600073ffffffffffffffffffffffffffffffffffffffff82169050919050565b6000819050919050565b600080fd5b6101f5816101dd565b811461020057600080fd5b5056fea2646970667358221220222fd6a4e606f39a59630dac46bc5d62fa540331d55ea6ecae2a1dd84d56e0db64736f6c63430008070033",
  "devdoc": {
    "kind": "dev",
    "methods": {},
    "version": 1
  },
  "userdoc": {
    "kind": "user",
    "methods": {},
    "version": 1
  },
  "storageLayout": {
    "storage": [
      {
        "astId": 2936,
        "contract": "contracts/Archi-contracts-v2/mocks/Oracle.sol:Oracle",
        "label": "owner",
        "offset": 0,
        "slot": "0",
        "type": "t_address"
      },
      {
        "astId": 2939,
        "contract": "contracts/Archi-contracts-v2/mocks/Oracle.sol:Oracle",
        "label": "_oraclePrice",
        "offset": 0,
        "slot": "1",
        "type": "t_uint256"
      }
    ],
    "types": {
      "t_address": {
        "encoding": "inplace",
        "label": "address",
        "numberOfBytes": "20"
      },
      "t_uint256": {
        "encoding": "inplace",
        "label": "uint256",
        "numberOfBytes": "32"
      }
    }
  }
}