{
  "address": "0x54B79011cd465cc4FC695540fBBbf1b97c0613B9",
  "abi": [
    {
      "inputs": [],
      "stateMutability": "nonpayable",
      "type": "constructor"
    },
    {
      "anonymous": false,
      "inputs": [
        {
          "indexed": true,
          "internalType": "address",
          "name": "masterContract",
          "type": "address"
        },
        {
          "indexed": false,
          "internalType": "bool",
          "name": "enabled",
          "type": "bool"
        }
      ],
      "name": "ContractSet",
      "type": "event"
    },
    {
      "anonymous": false,
      "inputs": [
        {
          "indexed": true,
          "internalType": "address",
          "name": "masterContract",
          "type": "address"
        },
        {
          "indexed": false,
          "internalType": "bytes",
          "name": "data",
          "type": "bytes"
        },
        {
          "indexed": false,
          "internalType": "address",
          "name": "clone_address",
          "type": "address"
        }
      ],
      "name": "Created",
      "type": "event"
    },
    {
      "anonymous": false,
      "inputs": [
        {
          "indexed": true,
          "internalType": "address",
          "name": "previousOwner",
          "type": "address"
        },
        {
          "indexed": true,
          "internalType": "address",
          "name": "newOwner",
          "type": "address"
        }
      ],
      "name": "OwnershipTransferred",
      "type": "event"
    },
    {
      "anonymous": false,
      "inputs": [
        {
          "indexed": false,
          "internalType": "address",
          "name": "swapper",
          "type": "address"
        },
        {
          "indexed": false,
          "internalType": "bool",
          "name": "enabled",
          "type": "bool"
        }
      ],
      "name": "SwapperSet",
      "type": "event"
    },
    {
      "inputs": [
        {
          "internalType": "contract IERC20",
          "name": "token",
          "type": "address"
        },
        {
          "internalType": "uint256",
          "name": "amount",
          "type": "uint256"
        }
      ],
      "name": "addAmount",
      "outputs": [
        {
          "internalType": "uint256",
          "name": "",
          "type": "uint256"
        }
      ],
      "stateMutability": "nonpayable",
      "type": "function"
    },
    {
      "inputs": [
        {
          "internalType": "contract IERC20",
          "name": "token",
          "type": "address"
        },
        {
          "internalType": "uint256",
          "name": "share",
          "type": "uint256"
        }
      ],
      "name": "addShare",
      "outputs": [
        {
          "internalType": "uint256",
          "name": "",
          "type": "uint256"
        }
      ],
      "stateMutability": "nonpayable",
      "type": "function"
    },
    {
      "inputs": [
        {
          "internalType": "address",
          "name": "",
          "type": "address"
        }
      ],
      "name": "contracts",
      "outputs": [
        {
          "internalType": "bool",
          "name": "",
          "type": "bool"
        }
      ],
      "stateMutability": "view",
      "type": "function"
    },
    {
      "inputs": [],
      "name": "feeTo",
      "outputs": [
        {
          "internalType": "address",
          "name": "",
          "type": "address"
        }
      ],
      "stateMutability": "view",
      "type": "function"
    },
    {
      "inputs": [],
      "name": "owner",
      "outputs": [
        {
          "internalType": "address",
          "name": "",
          "type": "address"
        }
      ],
      "stateMutability": "view",
      "type": "function"
    },
    {
      "inputs": [],
      "name": "renounceOwnership",
      "outputs": [],
      "stateMutability": "nonpayable",
      "type": "function"
    },
    {
      "inputs": [
        {
          "internalType": "address",
          "name": "newContract",
          "type": "address"
        },
        {
          "internalType": "bool",
          "name": "enabled",
          "type": "bool"
        }
      ],
      "name": "setContract",
      "outputs": [],
      "stateMutability": "nonpayable",
      "type": "function"
    },
    {
      "inputs": [
        {
          "internalType": "address",
          "name": "swapper",
          "type": "address"
        },
        {
          "internalType": "bool",
          "name": "enabled",
          "type": "bool"
        }
      ],
      "name": "setSwapper",
      "outputs": [],
      "stateMutability": "nonpayable",
      "type": "function"
    },
    {
      "inputs": [
        {
          "internalType": "contract IERC20",
          "name": "",
          "type": "address"
        },
        {
          "internalType": "address",
          "name": "",
          "type": "address"
        }
      ],
      "name": "shareOf",
      "outputs": [
        {
          "internalType": "uint256",
          "name": "",
          "type": "uint256"
        }
      ],
      "stateMutability": "view",
      "type": "function"
    },
    {
      "inputs": [
        {
          "internalType": "address",
          "name": "",
          "type": "address"
        }
      ],
      "name": "swappers",
      "outputs": [
        {
          "internalType": "bool",
          "name": "",
          "type": "bool"
        }
      ],
      "stateMutability": "view",
      "type": "function"
    },
    {
      "inputs": [
        {
          "internalType": "contract IERC20",
          "name": "token",
          "type": "address"
        }
      ],
      "name": "sync",
      "outputs": [],
      "stateMutability": "nonpayable",
      "type": "function"
    },
    {
      "inputs": [
        {
          "internalType": "contract IERC20",
          "name": "token",
          "type": "address"
        },
        {
          "internalType": "uint256",
          "name": "share",
          "type": "uint256"
        }
      ],
      "name": "toAmount",
      "outputs": [
        {
          "internalType": "uint256",
          "name": "",
          "type": "uint256"
        }
      ],
      "stateMutability": "view",
      "type": "function"
    },
    {
      "inputs": [
        {
          "internalType": "contract IERC20",
          "name": "token",
          "type": "address"
        },
        {
          "internalType": "uint256",
          "name": "amount",
          "type": "uint256"
        }
      ],
      "name": "toShare",
      "outputs": [
        {
          "internalType": "uint256",
          "name": "",
          "type": "uint256"
        }
      ],
      "stateMutability": "view",
      "type": "function"
    },
    {
      "inputs": [
        {
          "internalType": "contract IERC20",
          "name": "",
          "type": "address"
        }
      ],
      "name": "totalBalance",
      "outputs": [
        {
          "internalType": "uint256",
          "name": "",
          "type": "uint256"
        }
      ],
      "stateMutability": "view",
      "type": "function"
    },
    {
      "inputs": [
        {
          "internalType": "contract IERC20",
          "name": "",
          "type": "address"
        }
      ],
      "name": "totalShare",
      "outputs": [
        {
          "internalType": "uint256",
          "name": "",
          "type": "uint256"
        }
      ],
      "stateMutability": "view",
      "type": "function"
    },
    {
      "inputs": [
        {
          "internalType": "contract IERC20",
          "name": "token",
          "type": "address"
        },
        {
          "internalType": "address",
          "name": "to",
          "type": "address"
        },
        {
          "internalType": "uint256",
          "name": "amount",
          "type": "uint256"
        }
      ],
      "name": "transferAmount",
      "outputs": [
        {
          "internalType": "uint256",
          "name": "",
          "type": "uint256"
        }
      ],
      "stateMutability": "nonpayable",
      "type": "function"
    },
    {
      "inputs": [
        {
          "internalType": "contract IERC20",
          "name": "token",
          "type": "address"
        },
        {
          "internalType": "address",
          "name": "from",
          "type": "address"
        },
        {
          "internalType": "uint256",
          "name": "amount",
          "type": "uint256"
        }
      ],
      "name": "transferAmountFrom",
      "outputs": [
        {
          "internalType": "uint256",
          "name": "",
          "type": "uint256"
        }
      ],
      "stateMutability": "nonpayable",
      "type": "function"
    },
    {
      "inputs": [
        {
          "internalType": "address",
          "name": "newOwner",
          "type": "address"
        }
      ],
      "name": "transferOwnership",
      "outputs": [],
      "stateMutability": "nonpayable",
      "type": "function"
    },
    {
      "inputs": [
        {
          "internalType": "contract IERC20",
          "name": "token",
          "type": "address"
        },
        {
          "internalType": "address",
          "name": "to",
          "type": "address"
        },
        {
          "internalType": "uint256",
          "name": "share",
          "type": "uint256"
        }
      ],
      "name": "transferShare",
      "outputs": [
        {
          "internalType": "uint256",
          "name": "",
          "type": "uint256"
        }
      ],
      "stateMutability": "nonpayable",
      "type": "function"
    },
    {
      "inputs": [
        {
          "internalType": "contract IERC20",
          "name": "token",
          "type": "address"
        },
        {
          "internalType": "address",
          "name": "from",
          "type": "address"
        },
        {
          "internalType": "uint256",
          "name": "share",
          "type": "uint256"
        }
      ],
      "name": "transferShareFrom",
      "outputs": [
        {
          "internalType": "uint256",
          "name": "",
          "type": "uint256"
        }
      ],
      "stateMutability": "nonpayable",
      "type": "function"
    }
  ],
  "transactionHash": "0x5ec9dd5dd3b40e1211d76f2a47c6ab4a26d123e49a8058389e6e98388dd7ba17",
  "args": [],
  "numDeployments": 1,
  "solcInputHash": "97f110230cb8d4fe5f13ae05a80d88e6",
  "bytecode": "0x60806040523480156200001157600080fd5b5062000032620000266200007960201b60201c565b6200008160201b60201c565b33600660006101000a81548173ffffffffffffffffffffffffffffffffffffffff021916908373ffffffffffffffffffffffffffffffffffffffff16021790555062000145565b600033905090565b60008060009054906101000a900473ffffffffffffffffffffffffffffffffffffffff169050816000806101000a81548173ffffffffffffffffffffffffffffffffffffffff021916908373ffffffffffffffffffffffffffffffffffffffff1602179055508173ffffffffffffffffffffffffffffffffffffffff168173ffffffffffffffffffffffffffffffffffffffff167f8be0079c531659141344cd1fd0a4f28419497f9722a3daafe3b4186f6b6457e060405160405180910390a35050565b6125c280620001556000396000f3fe608060405234801561001057600080fd5b506004361061012c5760003560e01c80638cad7fbe116100ad578063c3ec106811610071578063c3ec10681461038f578063d9ac7b84146103bf578063e8cacd72146103ef578063f1af92b61461040b578063f2fde38b1461043b5761012c565b80638cad7fbe146102c55780638da5cb5b146102f5578063a584119414610313578063acd5d4581461032f578063b9b105f71461035f5761012c565b806362d65aae116100f457806362d65aae146101fb57806369dc9ff31461022b5780636eacd3981461025b578063715018a61461028b5780637c431fac146102955761012c565b8063017e7e581461013157806301f474711461014f578063383dbe711461017f5780633f2617cb146101af57806350f4f9f8146101cb575b600080fd5b610139610457565b6040516101469190611fdd565b60405180910390f35b61016960048036038101906101649190611dc0565b61047d565b604051610176919061218e565b60405180910390f35b61019960048036038101906101949190611e13565b610669565b6040516101a6919061218e565b60405180910390f35b6101c960048036038101906101c49190611ce6565b610708565b005b6101e560048036038101906101e09190611e13565b61079c565b6040516101f2919061218e565b60405180910390f35b61021560048036038101906102109190611dc0565b6109aa565b604051610222919061218e565b60405180910390f35b61024560048036038101906102409190611cb9565b610c14565b6040516102529190612081565b60405180910390f35b61027560048036038101906102709190611d53565b610c34565b604051610282919061218e565b60405180910390f35b610293610c4c565b005b6102af60048036038101906102aa9190611d53565b610c60565b6040516102bc919061218e565b60405180910390f35b6102df60048036038101906102da9190611cb9565b610c78565b6040516102ec9190612081565b60405180910390f35b6102fd610c98565b60405161030a9190611fdd565b60405180910390f35b61032d60048036038101906103289190611d53565b610cc1565b005b61034960048036038101906103449190611d80565b610d90565b604051610356919061218e565b60405180910390f35b61037960048036038101906103749190611dc0565b610db5565b604051610386919061218e565b60405180910390f35b6103a960048036038101906103a49190611dc0565b610ff1565b6040516103b6919061218e565b60405180910390f35b6103d960048036038101906103d49190611e13565b61122d565b6040516103e6919061218e565b60405180910390f35b61040960048036038101906104049190611ce6565b6112cc565b005b61042560048036038101906104209190611e13565b611375565b604051610432919061218e565b60405180910390f35b61045560048036038101906104509190611cb9565b611583565b005b600660009054906101000a900473ffffffffffffffffffffffffffffffffffffffff1681565b600080600560008673ffffffffffffffffffffffffffffffffffffffff1673ffffffffffffffffffffffffffffffffffffffff16815260200190815260200160002054600460008773ffffffffffffffffffffffffffffffffffffffff1673ffffffffffffffffffffffffffffffffffffffff168152602001908152602001600020548461050b9190612262565b6105159190612231565b905080600460008773ffffffffffffffffffffffffffffffffffffffff1673ffffffffffffffffffffffffffffffffffffffff1681526020019081526020016000205461056291906122bc565b600460008773ffffffffffffffffffffffffffffffffffffffff1673ffffffffffffffffffffffffffffffffffffffff1681526020019081526020016000208190555082600560008773ffffffffffffffffffffffffffffffffffffffff1673ffffffffffffffffffffffffffffffffffffffff168152602001908152602001600020546105f091906122bc565b600560008773ffffffffffffffffffffffffffffffffffffffff1673ffffffffffffffffffffffffffffffffffffffff1681526020019081526020016000208190555061065e84848773ffffffffffffffffffffffffffffffffffffffff166116079092919063ffffffff16565b809150509392505050565b6000600460008473ffffffffffffffffffffffffffffffffffffffff1673ffffffffffffffffffffffffffffffffffffffff16815260200190815260200160002054600560008573ffffffffffffffffffffffffffffffffffffffff1673ffffffffffffffffffffffffffffffffffffffff16815260200190815260200160002054836106f69190612262565b6107009190612231565b905092915050565b80600260008473ffffffffffffffffffffffffffffffffffffffff1673ffffffffffffffffffffffffffffffffffffffff16815260200190815260200160002060006101000a81548160ff0219169083151502179055507fce2551c9ac42ac0b615746caefe44149fd51e00cda7da0ece259441890c8368c828260405161079092919061202f565b60405180910390a15050565b6000806000600460008673ffffffffffffffffffffffffffffffffffffffff1673ffffffffffffffffffffffffffffffffffffffff168152602001908152602001600020541461088057600460008573ffffffffffffffffffffffffffffffffffffffff1673ffffffffffffffffffffffffffffffffffffffff16815260200190815260200160002054600560008673ffffffffffffffffffffffffffffffffffffffff1673ffffffffffffffffffffffffffffffffffffffff16815260200190815260200160002054846108719190612262565b61087b9190612231565b610882565b825b905082600460008673ffffffffffffffffffffffffffffffffffffffff1673ffffffffffffffffffffffffffffffffffffffff168152602001908152602001600020546108cf91906121db565b600460008673ffffffffffffffffffffffffffffffffffffffff1673ffffffffffffffffffffffffffffffffffffffff1681526020019081526020016000208190555080600560008673ffffffffffffffffffffffffffffffffffffffff1673ffffffffffffffffffffffffffffffffffffffff1681526020019081526020016000205461095d91906121db565b600560008673ffffffffffffffffffffffffffffffffffffffff1673ffffffffffffffffffffffffffffffffffffffff168152602001908152602001600020819055508091505092915050565b60006109ea6040518060400160405280601a81526020017f3d3d3d20696e746f207472616e736665725368617265203d3d3d00000000000081525061168d565b6000600460008673ffffffffffffffffffffffffffffffffffffffff1673ffffffffffffffffffffffffffffffffffffffff16815260200190815260200160002054600560008773ffffffffffffffffffffffffffffffffffffffff1673ffffffffffffffffffffffffffffffffffffffff1681526020019081526020016000205484610a779190612262565b610a819190612231565b9050610ac26040518060400160405280600681526020017f616d6f756e74000000000000000000000000000000000000000000000000000081525082611726565b82600460008773ffffffffffffffffffffffffffffffffffffffff1673ffffffffffffffffffffffffffffffffffffffff16815260200190815260200160002054610b0d91906122bc565b600460008773ffffffffffffffffffffffffffffffffffffffff1673ffffffffffffffffffffffffffffffffffffffff1681526020019081526020016000208190555080600560008773ffffffffffffffffffffffffffffffffffffffff1673ffffffffffffffffffffffffffffffffffffffff16815260200190815260200160002054610b9b91906122bc565b600560008773ffffffffffffffffffffffffffffffffffffffff1673ffffffffffffffffffffffffffffffffffffffff16815260200190815260200160002081905550610c0984828773ffffffffffffffffffffffffffffffffffffffff166116079092919063ffffffff16565b809150509392505050565b60016020528060005260406000206000915054906101000a900460ff1681565b60056020528060005260406000206000915090505481565b610c546117c2565b610c5e6000611840565b565b60046020528060005260406000206000915090505481565b60026020528060005260406000206000915054906101000a900460ff1681565b60008060009054906101000a900473ffffffffffffffffffffffffffffffffffffffff16905090565b8073ffffffffffffffffffffffffffffffffffffffff166370a08231306040518263ffffffff1660e01b8152600401610cfa9190611fdd565b60206040518083038186803b158015610d1257600080fd5b505afa158015610d26573d6000803e3d6000fd5b505050506040513d601f19601f82011682018060405250810190610d4a9190611e53565b600560008373ffffffffffffffffffffffffffffffffffffffff1673ffffffffffffffffffffffffffffffffffffffff1681526020019081526020016000208190555050565b6003602052816000526040600020602052806000526040600020600091509150505481565b6000806000600460008773ffffffffffffffffffffffffffffffffffffffff1673ffffffffffffffffffffffffffffffffffffffff1681526020019081526020016000205414610e9957600560008673ffffffffffffffffffffffffffffffffffffffff1673ffffffffffffffffffffffffffffffffffffffff16815260200190815260200160002054600460008773ffffffffffffffffffffffffffffffffffffffff1673ffffffffffffffffffffffffffffffffffffffff1681526020019081526020016000205484610e8a9190612262565b610e949190612231565b610e9b565b825b905080600460008773ffffffffffffffffffffffffffffffffffffffff1673ffffffffffffffffffffffffffffffffffffffff16815260200190815260200160002054610ee891906121db565b600460008773ffffffffffffffffffffffffffffffffffffffff1673ffffffffffffffffffffffffffffffffffffffff1681526020019081526020016000208190555082600560008773ffffffffffffffffffffffffffffffffffffffff1673ffffffffffffffffffffffffffffffffffffffff16815260200190815260200160002054610f7691906121db565b600560008773ffffffffffffffffffffffffffffffffffffffff1673ffffffffffffffffffffffffffffffffffffffff16815260200190815260200160002081905550610fe68430858873ffffffffffffffffffffffffffffffffffffffff16611904909392919063ffffffff16565b809150509392505050565b6000806000600460008773ffffffffffffffffffffffffffffffffffffffff1673ffffffffffffffffffffffffffffffffffffffff16815260200190815260200160002054146110d557600460008673ffffffffffffffffffffffffffffffffffffffff1673ffffffffffffffffffffffffffffffffffffffff16815260200190815260200160002054600560008773ffffffffffffffffffffffffffffffffffffffff1673ffffffffffffffffffffffffffffffffffffffff16815260200190815260200160002054846110c69190612262565b6110d09190612231565b6110d7565b825b905082600460008773ffffffffffffffffffffffffffffffffffffffff1673ffffffffffffffffffffffffffffffffffffffff1681526020019081526020016000205461112491906121db565b600460008773ffffffffffffffffffffffffffffffffffffffff1673ffffffffffffffffffffffffffffffffffffffff1681526020019081526020016000208190555080600560008773ffffffffffffffffffffffffffffffffffffffff1673ffffffffffffffffffffffffffffffffffffffff168152602001908152602001600020546111b291906121db565b600560008773ffffffffffffffffffffffffffffffffffffffff1673ffffffffffffffffffffffffffffffffffffffff168152602001908152602001600020819055506112228430838873ffffffffffffffffffffffffffffffffffffffff16611904909392919063ffffffff16565b809150509392505050565b6000600560008473ffffffffffffffffffffffffffffffffffffffff1673ffffffffffffffffffffffffffffffffffffffff16815260200190815260200160002054600460008573ffffffffffffffffffffffffffffffffffffffff1673ffffffffffffffffffffffffffffffffffffffff16815260200190815260200160002054836112ba9190612262565b6112c49190612231565b905092915050565b80600160008473ffffffffffffffffffffffffffffffffffffffff1673ffffffffffffffffffffffffffffffffffffffff16815260200190815260200160002060006101000a81548160ff0219169083151502179055508173ffffffffffffffffffffffffffffffffffffffff167f114430ac4e1cf94bacba3b4441a1c58c6901b167434208586b368986b093c118826040516113699190612081565b60405180910390a25050565b6000806000600460008673ffffffffffffffffffffffffffffffffffffffff1673ffffffffffffffffffffffffffffffffffffffff168152602001908152602001600020541461145957600560008573ffffffffffffffffffffffffffffffffffffffff1673ffffffffffffffffffffffffffffffffffffffff16815260200190815260200160002054600460008673ffffffffffffffffffffffffffffffffffffffff1673ffffffffffffffffffffffffffffffffffffffff168152602001908152602001600020548461144a9190612262565b6114549190612231565b61145b565b825b905080600460008673ffffffffffffffffffffffffffffffffffffffff1673ffffffffffffffffffffffffffffffffffffffff168152602001908152602001600020546114a891906121db565b600460008673ffffffffffffffffffffffffffffffffffffffff1673ffffffffffffffffffffffffffffffffffffffff1681526020019081526020016000208190555082600560008673ffffffffffffffffffffffffffffffffffffffff1673ffffffffffffffffffffffffffffffffffffffff1681526020019081526020016000205461153691906121db565b600560008673ffffffffffffffffffffffffffffffffffffffff1673ffffffffffffffffffffffffffffffffffffffff168152602001908152602001600020819055508091505092915050565b61158b6117c2565b600073ffffffffffffffffffffffffffffffffffffffff168173ffffffffffffffffffffffffffffffffffffffff1614156115fb576040517f08c379a00000000000000000000000000000000000000000000000000000000081526004016115f2906120ee565b60405180910390fd5b61160481611840565b50565b6116888363a9059cbb60e01b8484604051602401611626929190612058565b604051602081830303815290604052907bffffffffffffffffffffffffffffffffffffffffffffffffffffffff19166020820180517bffffffffffffffffffffffffffffffffffffffffffffffffffffffff838183161783525050505061198d565b505050565b611723816040516024016116a1919061209c565b6040516020818303038152906040527f41304fac000000000000000000000000000000000000000000000000000000007bffffffffffffffffffffffffffffffffffffffffffffffffffffffff19166020820180517bffffffffffffffffffffffffffffffffffffffffffffffffffffffff8381831617835250505050611a54565b50565b6117be828260405160240161173c9291906120be565b6040516020818303038152906040527fb60e72cc000000000000000000000000000000000000000000000000000000007bffffffffffffffffffffffffffffffffffffffffffffffffffffffff19166020820180517bffffffffffffffffffffffffffffffffffffffffffffffffffffffff8381831617835250505050611a54565b5050565b6117ca611a7d565b73ffffffffffffffffffffffffffffffffffffffff166117e8610c98565b73ffffffffffffffffffffffffffffffffffffffff161461183e576040517f08c379a00000000000000000000000000000000000000000000000000000000081526004016118359061212e565b60405180910390fd5b565b60008060009054906101000a900473ffffffffffffffffffffffffffffffffffffffff169050816000806101000a81548173ffffffffffffffffffffffffffffffffffffffff021916908373ffffffffffffffffffffffffffffffffffffffff1602179055508173ffffffffffffffffffffffffffffffffffffffff168173ffffffffffffffffffffffffffffffffffffffff167f8be0079c531659141344cd1fd0a4f28419497f9722a3daafe3b4186f6b6457e060405160405180910390a35050565b611987846323b872dd60e01b85858560405160240161192593929190611ff8565b604051602081830303815290604052907bffffffffffffffffffffffffffffffffffffffffffffffffffffffff19166020820180517bffffffffffffffffffffffffffffffffffffffffffffffffffffffff838183161783525050505061198d565b50505050565b60006119ef826040518060400160405280602081526020017f5361666545524332303a206c6f772d6c6576656c2063616c6c206661696c65648152508573ffffffffffffffffffffffffffffffffffffffff16611a859092919063ffffffff16565b9050600081511115611a4f5780806020019051810190611a0f9190611d26565b611a4e576040517f08c379a0000000000000000000000000000000000000000000000000000000008152600401611a459061216e565b60405180910390fd5b5b505050565b60008151905060006a636f6e736f6c652e6c6f679050602083016000808483855afa5050505050565b600033905090565b6060611a948484600085611a9d565b90509392505050565b606082471015611ae2576040517f08c379a0000000000000000000000000000000000000000000000000000000008152600401611ad99061210e565b60405180910390fd5b611aeb85611bb1565b611b2a576040517f08c379a0000000000000000000000000000000000000000000000000000000008152600401611b219061214e565b60405180910390fd5b6000808673ffffffffffffffffffffffffffffffffffffffff168587604051611b539190611fc6565b60006040518083038185875af1925050503d8060008114611b90576040519150601f19603f3d011682016040523d82523d6000602084013e611b95565b606091505b5091509150611ba5828286611bd4565b92505050949350505050565b6000808273ffffffffffffffffffffffffffffffffffffffff163b119050919050565b60608315611be457829050611c34565b600083511115611bf75782518084602001fd5b816040517f08c379a0000000000000000000000000000000000000000000000000000000008152600401611c2b919061209c565b60405180910390fd5b9392505050565b600081359050611c4a81612530565b92915050565b600081359050611c5f81612547565b92915050565b600081519050611c7481612547565b92915050565b600081359050611c898161255e565b92915050565b600081359050611c9e81612575565b92915050565b600081519050611cb381612575565b92915050565b600060208284031215611ccf57611cce6123db565b5b6000611cdd84828501611c3b565b91505092915050565b60008060408385031215611cfd57611cfc6123db565b5b6000611d0b85828601611c3b565b9250506020611d1c85828601611c50565b9150509250929050565b600060208284031215611d3c57611d3b6123db565b5b6000611d4a84828501611c65565b91505092915050565b600060208284031215611d6957611d686123db565b5b6000611d7784828501611c7a565b91505092915050565b60008060408385031215611d9757611d966123db565b5b6000611da585828601611c7a565b9250506020611db685828601611c3b565b9150509250929050565b600080600060608486031215611dd957611dd86123db565b5b6000611de786828701611c7a565b9350506020611df886828701611c3b565b9250506040611e0986828701611c8f565b9150509250925092565b60008060408385031215611e2a57611e296123db565b5b6000611e3885828601611c7a565b9250506020611e4985828601611c8f565b9150509250929050565b600060208284031215611e6957611e686123db565b5b6000611e7784828501611ca4565b91505092915050565b611e89816122f0565b82525050565b611e9881612302565b82525050565b6000611ea9826121a9565b611eb381856121bf565b9350611ec381856020860161234a565b80840191505092915050565b6000611eda826121b4565b611ee481856121ca565b9350611ef481856020860161234a565b611efd816123e0565b840191505092915050565b6000611f156026836121ca565b9150611f20826123f1565b604082019050919050565b6000611f386026836121ca565b9150611f4382612440565b604082019050919050565b6000611f5b6020836121ca565b9150611f668261248f565b602082019050919050565b6000611f7e601d836121ca565b9150611f89826124b8565b602082019050919050565b6000611fa1602a836121ca565b9150611fac826124e1565b604082019050919050565b611fc081612340565b82525050565b6000611fd28284611e9e565b915081905092915050565b6000602082019050611ff26000830184611e80565b92915050565b600060608201905061200d6000830186611e80565b61201a6020830185611e80565b6120276040830184611fb7565b949350505050565b60006040820190506120446000830185611e80565b6120516020830184611e8f565b9392505050565b600060408201905061206d6000830185611e80565b61207a6020830184611fb7565b9392505050565b60006020820190506120966000830184611e8f565b92915050565b600060208201905081810360008301526120b68184611ecf565b905092915050565b600060408201905081810360008301526120d88185611ecf565b90506120e76020830184611fb7565b9392505050565b6000602082019050818103600083015261210781611f08565b9050919050565b6000602082019050818103600083015261212781611f2b565b9050919050565b6000602082019050818103600083015261214781611f4e565b9050919050565b6000602082019050818103600083015261216781611f71565b9050919050565b6000602082019050818103600083015261218781611f94565b9050919050565b60006020820190506121a36000830184611fb7565b92915050565b600081519050919050565b600081519050919050565b600081905092915050565b600082825260208201905092915050565b60006121e682612340565b91506121f183612340565b9250827fffffffffffffffffffffffffffffffffffffffffffffffffffffffffffffffff038211156122265761222561237d565b5b828201905092915050565b600061223c82612340565b915061224783612340565b925082612257576122566123ac565b5b828204905092915050565b600061226d82612340565b915061227883612340565b9250817fffffffffffffffffffffffffffffffffffffffffffffffffffffffffffffffff04831182151516156122b1576122b061237d565b5b828202905092915050565b60006122c782612340565b91506122d283612340565b9250828210156122e5576122e461237d565b5b828203905092915050565b60006122fb82612320565b9050919050565b60008115159050919050565b6000612319826122f0565b9050919050565b600073ffffffffffffffffffffffffffffffffffffffff82169050919050565b6000819050919050565b60005b8381101561236857808201518184015260208101905061234d565b83811115612377576000848401525b50505050565b7f4e487b7100000000000000000000000000000000000000000000000000000000600052601160045260246000fd5b7f4e487b7100000000000000000000000000000000000000000000000000000000600052601260045260246000fd5b600080fd5b6000601f19601f8301169050919050565b7f4f776e61626c653a206e6577206f776e657220697320746865207a65726f206160008201527f6464726573730000000000000000000000000000000000000000000000000000602082015250565b7f416464726573733a20696e73756666696369656e742062616c616e636520666f60008201527f722063616c6c0000000000000000000000000000000000000000000000000000602082015250565b7f4f776e61626c653a2063616c6c6572206973206e6f7420746865206f776e6572600082015250565b7f416464726573733a2063616c6c20746f206e6f6e2d636f6e7472616374000000600082015250565b7f5361666545524332303a204552433230206f7065726174696f6e20646964206e60008201527f6f74207375636365656400000000000000000000000000000000000000000000602082015250565b612539816122f0565b811461254457600080fd5b50565b61255081612302565b811461255b57600080fd5b50565b6125678161230e565b811461257257600080fd5b50565b61257e81612340565b811461258957600080fd5b5056fea264697066735822122029f6762d374539224dfe5feceae92bd5ef3d29ae112177c4714f10aca3523c8c64736f6c63430008070033",
  "devdoc": {
    "kind": "dev",
    "methods": {
      "owner()": {
        "details": "Returns the address of the current owner."
      },
      "renounceOwnership()": {
        "details": "Leaves the contract without owner. It will not be possible to call `onlyOwner` functions anymore. Can only be called by the current owner. NOTE: Renouncing ownership will leave the contract without an owner, thereby removing any functionality that is only available to the owner."
      },
      "transferOwnership(address)": {
        "details": "Transfers ownership of the contract to a new account (`newOwner`). Can only be called by the current owner."
      }
    },
    "version": 1
  },
  "userdoc": {
    "kind": "user",
    "methods": {},
    "version": 1
  },
  "storageLayout": {
    "storage": [
      {
        "astId": 7,
        "contract": "contracts/Archi-contracts-v2/Vault.sol:Vault",
        "label": "_owner",
        "offset": 0,
        "slot": "0",
        "type": "t_address"
      },
      {
        "astId": 1626,
        "contract": "contracts/Archi-contracts-v2/Vault.sol:Vault",
        "label": "contracts",
        "offset": 0,
        "slot": "1",
        "type": "t_mapping(t_address,t_bool)"
      },
      {
        "astId": 1630,
        "contract": "contracts/Archi-contracts-v2/Vault.sol:Vault",
        "label": "swappers",
        "offset": 0,
        "slot": "2",
        "type": "t_mapping(t_address,t_bool)"
      },
      {
        "astId": 1637,
        "contract": "contracts/Archi-contracts-v2/Vault.sol:Vault",
        "label": "shareOf",
        "offset": 0,
        "slot": "3",
        "type": "t_mapping(t_contract(IERC20)190,t_mapping(t_address,t_uint256))"
      },
      {
        "astId": 1642,
        "contract": "contracts/Archi-contracts-v2/Vault.sol:Vault",
        "label": "totalShare",
        "offset": 0,
        "slot": "4",
        "type": "t_mapping(t_contract(IERC20)190,t_uint256)"
      },
      {
        "astId": 1647,
        "contract": "contracts/Archi-contracts-v2/Vault.sol:Vault",
        "label": "totalBalance",
        "offset": 0,
        "slot": "5",
        "type": "t_mapping(t_contract(IERC20)190,t_uint256)"
      },
      {
        "astId": 1649,
        "contract": "contracts/Archi-contracts-v2/Vault.sol:Vault",
        "label": "feeTo",
        "offset": 0,
        "slot": "6",
        "type": "t_address"
      }
    ],
    "types": {
      "t_address": {
        "encoding": "inplace",
        "label": "address",
        "numberOfBytes": "20"
      },
      "t_bool": {
        "encoding": "inplace",
        "label": "bool",
        "numberOfBytes": "1"
      },
      "t_contract(IERC20)190": {
        "encoding": "inplace",
        "label": "contract IERC20",
        "numberOfBytes": "20"
      },
      "t_mapping(t_address,t_bool)": {
        "encoding": "mapping",
        "key": "t_address",
        "label": "mapping(address => bool)",
        "numberOfBytes": "32",
        "value": "t_bool"
      },
      "t_mapping(t_address,t_uint256)": {
        "encoding": "mapping",
        "key": "t_address",
        "label": "mapping(address => uint256)",
        "numberOfBytes": "32",
        "value": "t_uint256"
      },
      "t_mapping(t_contract(IERC20)190,t_mapping(t_address,t_uint256))": {
        "encoding": "mapping",
        "key": "t_contract(IERC20)190",
        "label": "mapping(contract IERC20 => mapping(address => uint256))",
        "numberOfBytes": "32",
        "value": "t_mapping(t_address,t_uint256)"
      },
      "t_mapping(t_contract(IERC20)190,t_uint256)": {
        "encoding": "mapping",
        "key": "t_contract(IERC20)190",
        "label": "mapping(contract IERC20 => uint256)",
        "numberOfBytes": "32",
        "value": "t_uint256"
      },
      "t_uint256": {
        "encoding": "inplace",
        "label": "uint256",
        "numberOfBytes": "32"
      }
    }
  }
}